{
  "contractName": "Dropbox",
  "abi": [
    {
      "inputs": [],
      "stateMutability": "nonpayable",
      "type": "constructor"
    },
    {
      "inputs": [],
      "name": "name",
      "outputs": [
        {
          "internalType": "string",
          "name": "",
          "type": "string"
        }
      ],
      "stateMutability": "view",
      "type": "function",
      "constant": true
    },
    {
      "inputs": [
        {
          "internalType": "string",
          "name": "_fileName",
          "type": "string"
        },
        {
          "internalType": "uint256",
          "name": "_fileSize",
          "type": "uint256"
        },
        {
          "internalType": "string",
          "name": "_fileHash",
          "type": "string"
        }
      ],
      "name": "uploadFile",
      "outputs": [],
      "stateMutability": "nonpayable",
      "type": "function"
    }
  ],
  "bytecode": "0x60806040526040518060400160405280600781526020017f44726f70626f78000000000000000000000000000000000000000000000000008152506000908051906020019061004f929190610069565b5034801561005c57600080fd5b506001808190555061016c565b8280546100759061013b565b90600052602060002090601f01602090048101928261009757600085556100de565b82601f106100b057805160ff19168380011785556100de565b828001600101855582156100de579182015b828111156100dd5782518255916020019190600101906100c2565b5b5090506100eb91906100ef565b5090565b5b808211156101085760008160009055506001016100f0565b5090565b7f4e487b7100000000000000000000000000000000000000000000000000000000600052602260045260246000fd5b6000600282049050600182168061015357607f821691505b6020821081036101665761016561010c565b5b50919050565b61069a8061017b6000396000f3fe608060405234801561001057600080fd5b50600436106100365760003560e01c806306fdde031461003b57806372ec4e4514610059575b600080fd5b610043610075565b6040516100509190610361565b60405180910390f35b610073600480360381019061006e9190610502565b610103565b005b60008054610082906105bc565b80601f01602080910402602001604051908101604052809291908181526020018280546100ae906105bc565b80156100fb5780601f106100d0576101008083540402835291602001916100fb565b820191906000526020600020905b8154815290600101906020018083116100de57829003601f168201915b505050505081565b600081511161011157600080fd5b6000821161011e57600080fd5b600160008154809291906101319061061c565b91905055506040518060a001604052808481526020018381526020018281526020014281526020013373ffffffffffffffffffffffffffffffffffffffff1681525060026000600154815260200190815260200160002060008201518160000190805190602001906101a4929190610225565b506020820151816001015560408201518160020190805190602001906101cb929190610225565b506060820151816003015560808201518160040160006101000a81548173ffffffffffffffffffffffffffffffffffffffff021916908373ffffffffffffffffffffffffffffffffffffffff160217905550905050505050565b828054610231906105bc565b90600052602060002090601f016020900481019282610253576000855561029a565b82601f1061026c57805160ff191683800117855561029a565b8280016001018555821561029a579182015b8281111561029957825182559160200191906001019061027e565b5b5090506102a791906102ab565b5090565b5b808211156102c45760008160009055506001016102ac565b5090565b600081519050919050565b600082825260208201905092915050565b60005b838110156103025780820151818401526020810190506102e7565b83811115610311576000848401525b50505050565b6000601f19601f8301169050919050565b6000610333826102c8565b61033d81856102d3565b935061034d8185602086016102e4565b61035681610317565b840191505092915050565b6000602082019050818103600083015261037b8184610328565b905092915050565b6000604051905090565b600080fd5b600080fd5b600080fd5b600080fd5b7f4e487b7100000000000000000000000000000000000000000000000000000000600052604160045260246000fd5b6103d982610317565b810181811067ffffffffffffffff821117156103f8576103f76103a1565b5b80604052505050565b600061040b610383565b905061041782826103d0565b919050565b600067ffffffffffffffff821115610437576104366103a1565b5b61044082610317565b9050602081019050919050565b82818337600083830152505050565b600061046f61046a8461041c565b610401565b90508281526020810184848401111561048b5761048a61039c565b5b61049684828561044d565b509392505050565b600082601f8301126104b3576104b2610397565b5b81356104c384826020860161045c565b91505092915050565b6000819050919050565b6104df816104cc565b81146104ea57600080fd5b50565b6000813590506104fc816104d6565b92915050565b60008060006060848603121561051b5761051a61038d565b5b600084013567ffffffffffffffff81111561053957610538610392565b5b6105458682870161049e565b9350506020610556868287016104ed565b925050604084013567ffffffffffffffff81111561057757610576610392565b5b6105838682870161049e565b9150509250925092565b7f4e487b7100000000000000000000000000000000000000000000000000000000600052602260045260246000fd5b600060028204905060018216806105d457607f821691505b6020821081036105e7576105e661058d565b5b50919050565b7f4e487b7100000000000000000000000000000000000000000000000000000000600052601160045260246000fd5b6000610627826104cc565b91507fffffffffffffffffffffffffffffffffffffffffffffffffffffffffffffffff8203610659576106586105ed565b5b60018201905091905056fea264697066735822122021a10121e7a429e3d11b79c513941d56215e54e9c4decb687f3028c5cce766a264736f6c634300080d0033",
  "immutableReferences": {},
  "source": "// SPDX-License-Identifier: MIT\r\npragma solidity >=0.4.22 <0.9.0;\r\n\r\n\r\ncontract Dropbox {\r\n\r\n    string public name = \"Dropbox\";\r\n\r\n    uint private fileCount;\r\n\r\n    mapping(uint => File) files;\r\n\r\n    constructor() {\r\n\r\n        fileCount = 1;\r\n    }\r\n\r\n    struct File {\r\n        string fileName;\r\n        uint fileSize;\r\n        string fileHash;\r\n        uint uploadTime;\r\n        address uploader;\r\n    }\r\n\r\n    function uploadFile(string memory _fileName, uint _fileSize, string memory _fileHash) public {\r\n    // Make sure the file hash exists\r\n    require(bytes(_fileHash).length > 0);\r\n    // Make sure uploader address exists\r\n    //require(msg.sender!=address(0));\r\n    // Make sure file size is more than 0\r\n    require(_fileSize>0);\r\n\r\n    // Increment file id\r\n    fileCount ++;\r\n\r\n    // Add File to the contract\r\n    files[fileCount] = File(_fileName, _fileSize, _fileHash, block.timestamp, msg.sender);\r\n    }\r\n}\r\n",
  "sourcePath": "C:\\Users\\i.ivanov\\Desktop\\projects\\decentralized-dropbox\\dropbox\\src\\contracts\\Dropbox.sol",
  "compiler": {
    "name": "solc",
    "version": "0.8.13+commit.abaa5c0e.Emscripten.clang"
  },
  "schemaVersion": "3.4.7",
  "updatedAt": "2022-04-26T08:33:15.804Z",
  "networkType": "ethereum",
  "devdoc": {
    "kind": "dev",
    "methods": {},
    "version": 1
  },
  "userdoc": {
    "kind": "user",
    "methods": {},
    "version": 1
  }
}